{"contracts/VestingWallet.sol":{"VestingWallet":{"abi":[{"inputs":[{"internalType":"address","name":"beneficiaryAddress","type":"address"},{"internalType":"uint64","name":"startTimestamp","type":"uint64"},{"internalType":"uint64","name":"durationSeconds","type":"uint64"}],"stateMutability":"payable","type":"constructor"},{"inputs":[],"name":"FailedCall","type":"error"},{"inputs":[{"internalType":"uint256","name":"balance","type":"uint256"},{"internalType":"uint256","name":"needed","type":"uint256"}],"name":"InsufficientBalance","type":"error"},{"inputs":[{"internalType":"address","name":"token","type":"address"}],"name":"SafeERC20FailedOperation","type":"error"},{"anonymous":false,"inputs":[{"indexed":true,"internalType":"address","name":"token","type":"address"},{"indexed":false,"internalType":"uint256","name":"amount","type":"uint256"}],"name":"ERC20Released","type":"event"},{"anonymous":false,"inputs":[{"indexed":false,"internalType":"uint256","name":"amount","type":"uint256"}],"name":"EtherReleased","type":"event"},{"inputs":[],"name":"beneficiary","outputs":[{"internalType":"address","name":"","type":"address"}],"stateMutability":"view","type":"function"},{"inputs":[],"name":"duration","outputs":[{"internalType":"uint256","name":"","type":"uint256"}],"stateMutability":"view","type":"function"},{"inputs":[{"internalType":"address","name":"token","type":"address"}],"name":"releasable","outputs":[{"internalType":"uint256","name":"","type":"uint256"}],"stateMutability":"view","type":"function"},{"inputs":[],"name":"releasable","outputs":[{"internalType":"uint256","name":"","type":"uint256"}],"stateMutability":"view","type":"function"},{"inputs":[{"internalType":"address","name":"token","type":"address"}],"name":"release","outputs":[],"stateMutability":"nonpayable","type":"function"},{"inputs":[],"name":"release","outputs":[],"stateMutability":"nonpayable","type":"function"},{"inputs":[],"name":"released","outputs":[{"internalType":"uint256","name":"","type":"uint256"}],"stateMutability":"view","type":"function"},{"inputs":[{"internalType":"address","name":"token","type":"address"}],"name":"released","outputs":[{"internalType":"uint256","name":"","type":"uint256"}],"stateMutability":"view","type":"function"},{"inputs":[],"name":"start","outputs":[{"internalType":"uint256","name":"","type":"uint256"}],"stateMutability":"view","type":"function"},{"inputs":[{"internalType":"uint64","name":"timestamp","type":"uint64"}],"name":"vestedAmount","outputs":[{"internalType":"uint256","name":"","type":"uint256"}],"stateMutability":"view","type":"function"},{"inputs":[{"internalType":"address","name":"token","type":"address"},{"internalType":"uint64","name":"timestamp","type":"uint64"}],"name":"vestedAmount","outputs":[{"internalType":"uint256","name":"","type":"uint256"}],"stateMutability":"view","type":"function"},{"stateMutability":"payable","type":"receive"}],"evm":{"bytecode":{"linkReferences":{},"object":"60e0604052604051610940380380610940833981016040819052610022916100d0565b6001600160a01b03831661008f5760405162461bcd60e51b815260206004820152602a60248201527f56657374696e6757616c6c65743a2062656e6566696369617279206973207a65604482015269726f206164647265737360b01b606482015260840160405180910390fd5b6001600160a01b039092166080526001600160401b0390811660a0521660c052610121565b80516001600160401b03811681146100cb57600080fd5b919050565b6000806000606084860312156100e557600080fd5b83516001600160a01b03811681146100fc57600080fd5b925061010a602085016100b4565b9150610118604085016100b4565b90509250925092565b60805160a05160c0516107d561016b6000396000818160ee0152818161044d01526104a2015260006103e9015260008181610158015281816102f1015261038901526107d56000f3fe6080604052600436106100a05760003560e01c806386d1a69f1161006457806386d1a69f146101a257806396132521146101b75780639852595c146101cc578063a3f8eace14610202578063be9a655514610222578063fbccedae1461023757600080fd5b80630a17b06b146100ac5780630fb5a6b4146100df578063191655871461011c57806338af3eed1461013e578063810ec23b1461018257600080fd5b366100a757005b600080fd5b3480156100b857600080fd5b506100cc6100c73660046106aa565b61024c565b6040519081526020015b60405180910390f35b3480156100eb57600080fd5b507f000000000000000000000000000000000000000000000000000000000000000067ffffffffffffffff166100cc565b34801561012857600080fd5b5061013c6101373660046106dc565b610270565b005b34801561014a57600080fd5b506040516001600160a01b037f00000000000000000000000000000000000000000000000000000000000000001681526020016100d6565b34801561018e57600080fd5b506100cc61019d3660046106f7565b61031a565b3480156101ae57600080fd5b5061013c61032f565b3480156101c357600080fd5b506000546100cc565b3480156101d857600080fd5b506100cc6101e73660046106dc565b6001600160a01b031660009081526001602052604090205490565b34801561020e57600080fd5b506100cc61021d3660046106dc565b6103b1565b34801561022e57600080fd5b506100cc6103de565b34801561024357600080fd5b506100cc61040c565b600061026a61025a60005490565b6102649047610740565b83610428565b92915050565b600061027b826103b1565b6001600160a01b0383166000908152600160205260408120805492935083929091906102a8908490610740565b90915550506040518181526001600160a01b038316907fc0e523490dd523c33b1878c9eb14ff46991e3f5b2cd33710918618f2a39cba1b9060200160405180910390a2610316827f000000000000000000000000000000000000000000000000000000000000000083610502565b5050565b600061032861025a60005490565b9392505050565b600061033961040c565b90508060008082825461034c9190610740565b90915550506040518181527fda9d4e5f101b8b9b1c5b76d0c5a9f7923571acfc02376aa076b75a8c080c956b9060200160405180910390a16103ae7f000000000000000000000000000000000000000000000000000000000000000082610559565b50565b6001600160a01b0381166000908152600160205260408120546103d4834261031a565b61026a9190610753565b67ffffffffffffffff7f00000000000000000000000000000000000000000000000000000000000000001690565b600080546104194261024c565b6104239190610753565b905090565b60006104326103de565b8267ffffffffffffffff16101561044b5750600061026a565b7f000000000000000000000000000000000000000000000000000000000000000067ffffffffffffffff1661047e6103de565b6104889190610740565b8267ffffffffffffffff1611156104a057508161026a565b7f000000000000000000000000000000000000000000000000000000000000000067ffffffffffffffff166104d36103de565b6104e79067ffffffffffffffff8516610753565b6104f19085610766565b6104fb919061077d565b905061026a565b604080516001600160a01b038416602482015260448082018490528251808303909101815260649091019091526020810180516001600160e01b031663a9059cbb60e01b1790526105549084906105f4565b505050565b804710156105885760405163cf47918160e01b8152476004820152602481018290526044015b60405180910390fd5b600080836001600160a01b03168360405160006040518083038185875af1925050503d80600081146105d6576040519150601f19603f3d011682016040523d82523d6000602084013e6105db565b606091505b5091509150816105ee576105ee81610665565b50505050565b600080602060008451602086016000885af180610617576040513d6000823e3d81fd5b50506000513d9150811561062f57806001141561063c565b6001600160a01b0384163b155b156105ee57604051635274afe760e01b81526001600160a01b038516600482015260240161057f565b80511561067457805160208201fd5b60405163d6bda27560e01b815260040160405180910390fd5b803567ffffffffffffffff811681146106a557600080fd5b919050565b6000602082840312156106bc57600080fd5b6103288261068d565b80356001600160a01b03811681146106a557600080fd5b6000602082840312156106ee57600080fd5b610328826106c5565b6000806040838503121561070a57600080fd5b610713836106c5565b91506107216020840161068d565b90509250929050565b634e487b7160e01b600052601160045260246000fd5b8082018082111561026a5761026a61072a565b8181038181111561026a5761026a61072a565b808202811582820484141761026a5761026a61072a565b60008261079a57634e487b7160e01b600052601260045260246000fd5b50049056fea26469706673582212207f98ff77fc24b0d6ea5e41aa9a76823731f1549ab1156f07a2ed5876e2747d5964736f6c63430008140033","opcodes":"PUSH1 0xE0 PUSH1 0x40 MSTORE PUSH1 0x40 MLOAD PUSH2 0x940 CODESIZE SUB DUP1 PUSH2 0x940 DUP4 CODECOPY DUP2 ADD PUSH1 0x40 DUP2 SWAP1 MSTORE PUSH2 0x22 SWAP2 PUSH2 0xD0 JUMP JUMPDEST PUSH1 0x1 PUSH1 0x1 PUSH1 0xA0 SHL SUB DUP4 AND PUSH2 0x8F JUMPI PUSH1 0x40 MLOAD PUSH3 0x461BCD PUSH1 0xE5 SHL DUP2 MSTORE PUSH1 0x20 PUSH1 0x4 DUP3 ADD MSTORE PUSH1 0x2A PUSH1 0x24 DUP3 ADD MSTORE PUSH32 0x56657374696E6757616C6C65743A2062656E6566696369617279206973207A65 PUSH1 0x44 DUP3 ADD MSTORE PUSH10 0x726F2061646472657373 PUSH1 0xB0 SHL PUSH1 0x64 DUP3 ADD MSTORE PUSH1 0x84 ADD PUSH1 0x40 MLOAD DUP1 SWAP2 SUB SWAP1 REVERT JUMPDEST PUSH1 0x1 PUSH1 0x1 PUSH1 0xA0 SHL SUB SWAP1 SWAP3 AND PUSH1 0x80 MSTORE PUSH1 0x1 PUSH1 0x1 PUSH1 0x40 SHL SUB SWAP1 DUP2 AND PUSH1 0xA0 MSTORE AND PUSH1 0xC0 MSTORE PUSH2 0x121 JUMP JUMPDEST DUP1 MLOAD PUSH1 0x1 PUSH1 0x1 PUSH1 0x40 SHL SUB DUP2 AND DUP2 EQ PUSH2 0xCB JUMPI PUSH1 0x0 DUP1 REVERT JUMPDEST SWAP2 SWAP1 POP JUMP JUMPDEST PUSH1 0x0 DUP1 PUSH1 0x0 PUSH1 0x60 DUP5 DUP7 SUB SLT ISZERO PUSH2 0xE5 JUMPI PUSH1 0x0 DUP1 REVERT JUMPDEST DUP4 MLOAD PUSH1 0x1 PUSH1 0x1 PUSH1 0xA0 SHL SUB DUP2 AND DUP2 EQ PUSH2 0xFC JUMPI PUSH1 0x0 DUP1 REVERT JUMPDEST SWAP3 POP PUSH2 0x10A PUSH1 0x20 DUP6 ADD PUSH2 0xB4 JUMP JUMPDEST SWAP2 POP PUSH2 0x118 PUSH1 0x40 DUP6 ADD PUSH2 0xB4 JUMP JUMPDEST SWAP1 POP SWAP3 POP SWAP3 POP SWAP3 JUMP JUMPDEST PUSH1 0x80 MLOAD PUSH1 0xA0 MLOAD PUSH1 0xC0 MLOAD PUSH2 0x7D5 PUSH2 0x16B PUSH1 0x0 CODECOPY PUSH1 0x0 DUP2 DUP2 PUSH1 0xEE ADD MSTORE DUP2 DUP2 PUSH2 0x44D ADD MSTORE PUSH2 0x4A2 ADD MSTORE PUSH1 0x0 PUSH2 0x3E9 ADD MSTORE PUSH1 0x0 DUP2 DUP2 PUSH2 0x158 ADD MSTORE DUP2 DUP2 PUSH2 0x2F1 ADD MSTORE PUSH2 0x389 ADD MSTORE PUSH2 0x7D5 PUSH1 0x0 RETURN INVALID PUSH1 0x80 PUSH1 0x40 MSTORE PUSH1 0x4 CALLDATASIZE LT PUSH2 0xA0 JUMPI PUSH1 0x0 CALLDATALOAD PUSH1 0xE0 SHR DUP1 PUSH4 0x86D1A69F GT PUSH2 0x64 JUMPI DUP1 PUSH4 0x86D1A69F EQ PUSH2 0x1A2 JUMPI DUP1 PUSH4 0x96132521 EQ PUSH2 0x1B7 JUMPI DUP1 PUSH4 0x9852595C EQ PUSH2 0x1CC JUMPI DUP1 PUSH4 0xA3F8EACE EQ PUSH2 0x202 JUMPI DUP1 PUSH4 0xBE9A6555 EQ PUSH2 0x222 JUMPI DUP1 PUSH4 0xFBCCEDAE EQ PUSH2 0x237 JUMPI PUSH1 0x0 DUP1 REVERT JUMPDEST DUP1 PUSH4 0xA17B06B EQ PUSH2 0xAC JUMPI DUP1 PUSH4 0xFB5A6B4 EQ PUSH2 0xDF JUMPI DUP1 PUSH4 0x19165587 EQ PUSH2 0x11C JUMPI DUP1 PUSH4 0x38AF3EED EQ PUSH2 0x13E JUMPI DUP1 PUSH4 0x810EC23B EQ PUSH2 0x182 JUMPI PUSH1 0x0 DUP1 REVERT JUMPDEST CALLDATASIZE PUSH2 0xA7 JUMPI STOP JUMPDEST PUSH1 0x0 DUP1 REVERT JUMPDEST CALLVALUE DUP1 ISZERO PUSH2 0xB8 JUMPI PUSH1 0x0 DUP1 REVERT JUMPDEST POP PUSH2 0xCC PUSH2 0xC7 CALLDATASIZE PUSH1 0x4 PUSH2 0x6AA JUMP JUMPDEST PUSH2 0x24C JUMP JUMPDEST PUSH1 0x40 MLOAD SWAP1 DUP2 MSTORE PUSH1 0x20 ADD JUMPDEST PUSH1 0x40 MLOAD DUP1 SWAP2 SUB SWAP1 RETURN JUMPDEST CALLVALUE DUP1 ISZERO PUSH2 0xEB JUMPI PUSH1 0x0 DUP1 REVERT JUMPDEST POP PUSH32 0x0 PUSH8 0xFFFFFFFFFFFFFFFF AND PUSH2 0xCC JUMP JUMPDEST CALLVALUE DUP1 ISZERO PUSH2 0x128 JUMPI PUSH1 0x0 DUP1 REVERT JUMPDEST POP PUSH2 0x13C PUSH2 0x137 CALLDATASIZE PUSH1 0x4 PUSH2 0x6DC JUMP JUMPDEST PUSH2 0x270 JUMP JUMPDEST STOP JUMPDEST CALLVALUE DUP1 ISZERO PUSH2 0x14A JUMPI PUSH1 0x0 DUP1 REVERT JUMPDEST POP PUSH1 0x40 MLOAD PUSH1 0x1 PUSH1 0x1 PUSH1 0xA0 SHL SUB PUSH32 0x0 AND DUP2 MSTORE PUSH1 0x20 ADD PUSH2 0xD6 JUMP JUMPDEST CALLVALUE DUP1 ISZERO PUSH2 0x18E JUMPI PUSH1 0x0 DUP1 REVERT JUMPDEST POP PUSH2 0xCC PUSH2 0x19D CALLDATASIZE PUSH1 0x4 PUSH2 0x6F7 JUMP JUMPDEST PUSH2 0x31A JUMP JUMPDEST CALLVALUE DUP1 ISZERO PUSH2 0x1AE JUMPI PUSH1 0x0 DUP1 REVERT JUMPDEST POP PUSH2 0x13C PUSH2 0x32F JUMP JUMPDEST CALLVALUE DUP1 ISZERO PUSH2 0x1C3 JUMPI PUSH1 0x0 DUP1 REVERT JUMPDEST POP PUSH1 0x0 SLOAD PUSH2 0xCC JUMP JUMPDEST CALLVALUE DUP1 ISZERO PUSH2 0x1D8 JUMPI PUSH1 0x0 DUP1 REVERT JUMPDEST POP PUSH2 0xCC PUSH2 0x1E7 CALLDATASIZE PUSH1 0x4 PUSH2 0x6DC JUMP JUMPDEST PUSH1 0x1 PUSH1 0x1 PUSH1 0xA0 SHL SUB AND PUSH1 0x0 SWAP1 DUP2 MSTORE PUSH1 0x1 PUSH1 0x20 MSTORE PUSH1 0x40 SWAP1 KECCAK256 SLOAD SWAP1 JUMP JUMPDEST CALLVALUE DUP1 ISZERO PUSH2 0x20E JUMPI PUSH1 0x0 DUP1 REVERT JUMPDEST POP PUSH2 0xCC PUSH2 0x21D CALLDATASIZE PUSH1 0x4 PUSH2 0x6DC JUMP JUMPDEST PUSH2 0x3B1 JUMP JUMPDEST CALLVALUE DUP1 ISZERO PUSH2 0x22E JUMPI PUSH1 0x0 DUP1 REVERT JUMPDEST POP PUSH2 0xCC PUSH2 0x3DE JUMP JUMPDEST CALLVALUE DUP1 ISZERO PUSH2 0x243 JUMPI PUSH1 0x0 DUP1 REVERT JUMPDEST POP PUSH2 0xCC PUSH2 0x40C JUMP JUMPDEST PUSH1 0x0 PUSH2 0x26A PUSH2 0x25A PUSH1 0x0 SLOAD SWAP1 JUMP JUMPDEST PUSH2 0x264 SWAP1 SELFBALANCE PUSH2 0x740 JUMP JUMPDEST DUP4 PUSH2 0x428 JUMP JUMPDEST SWAP3 SWAP2 POP POP JUMP JUMPDEST PUSH1 0x0 PUSH2 0x27B DUP3 PUSH2 0x3B1 JUMP JUMPDEST PUSH1 0x1 PUSH1 0x1 PUSH1 0xA0 SHL SUB DUP4 AND PUSH1 0x0 SWAP1 DUP2 MSTORE PUSH1 0x1 PUSH1 0x20 MSTORE PUSH1 0x40 DUP2 KECCAK256 DUP1 SLOAD SWAP3 SWAP4 POP DUP4 SWAP3 SWAP1 SWAP2 SWAP1 PUSH2 0x2A8 SWAP1 DUP5 SWAP1 PUSH2 0x740 JUMP JUMPDEST SWAP1 SWAP2 SSTORE POP POP PUSH1 0x40 MLOAD DUP2 DUP2 MSTORE PUSH1 0x1 PUSH1 0x1 PUSH1 0xA0 SHL SUB DUP4 AND SWAP1 PUSH32 0xC0E523490DD523C33B1878C9EB14FF46991E3F5B2CD33710918618F2A39CBA1B SWAP1 PUSH1 0x20 ADD PUSH1 0x40 MLOAD DUP1 SWAP2 SUB SWAP1 LOG2 PUSH2 0x316 DUP3 PUSH32 0x0 DUP4 PUSH2 0x502 JUMP JUMPDEST POP POP JUMP JUMPDEST PUSH1 0x0 PUSH2 0x328 PUSH2 0x25A PUSH1 0x0 SLOAD SWAP1 JUMP JUMPDEST SWAP4 SWAP3 POP POP POP JUMP JUMPDEST PUSH1 0x0 PUSH2 0x339 PUSH2 0x40C JUMP JUMPDEST SWAP1 POP DUP1 PUSH1 0x0 DUP1 DUP3 DUP3 SLOAD PUSH2 0x34C SWAP2 SWAP1 PUSH2 0x740 JUMP JUMPDEST SWAP1 SWAP2 SSTORE POP POP PUSH1 0x40 MLOAD DUP2 DUP2 MSTORE PUSH32 0xDA9D4E5F101B8B9B1C5B76D0C5A9F7923571ACFC02376AA076B75A8C080C956B SWAP1 PUSH1 0x20 ADD PUSH1 0x40 MLOAD DUP1 SWAP2 SUB SWAP1 LOG1 PUSH2 0x3AE PUSH32 0x0 DUP3 PUSH2 0x559 JUMP JUMPDEST POP JUMP JUMPDEST PUSH1 0x1 PUSH1 0x1 PUSH1 0xA0 SHL SUB DUP2 AND PUSH1 0x0 SWAP1 DUP2 MSTORE PUSH1 0x1 PUSH1 0x20 MSTORE PUSH1 0x40 DUP2 KECCAK256 SLOAD PUSH2 0x3D4 DUP4 TIMESTAMP PUSH2 0x31A JUMP JUMPDEST PUSH2 0x26A SWAP2 SWAP1 PUSH2 0x753 JUMP JUMPDEST PUSH8 0xFFFFFFFFFFFFFFFF PUSH32 0x0 AND SWAP1 JUMP JUMPDEST PUSH1 0x0 DUP1 SLOAD PUSH2 0x419 TIMESTAMP PUSH2 0x24C JUMP JUMPDEST PUSH2 0x423 SWAP2 SWAP1 PUSH2 0x753 JUMP JUMPDEST SWAP1 POP SWAP1 JUMP JUMPDEST PUSH1 0x0 PUSH2 0x432 PUSH2 0x3DE JUMP JUMPDEST DUP3 PUSH8 0xFFFFFFFFFFFFFFFF AND LT ISZERO PUSH2 0x44B JUMPI POP PUSH1 0x0 PUSH2 0x26A JUMP JUMPDEST PUSH32 0x0 PUSH8 0xFFFFFFFFFFFFFFFF AND PUSH2 0x47E PUSH2 0x3DE JUMP JUMPDEST PUSH2 0x488 SWAP2 SWAP1 PUSH2 0x740 JUMP JUMPDEST DUP3 PUSH8 0xFFFFFFFFFFFFFFFF AND GT ISZERO PUSH2 0x4A0 JUMPI POP DUP2 PUSH2 0x26A JUMP JUMPDEST PUSH32 0x0 PUSH8 0xFFFFFFFFFFFFFFFF AND PUSH2 0x4D3 PUSH2 0x3DE JUMP JUMPDEST PUSH2 0x4E7 SWAP1 PUSH8 0xFFFFFFFFFFFFFFFF DUP6 AND PUSH2 0x753 JUMP JUMPDEST PUSH2 0x4F1 SWAP1 DUP6 PUSH2 0x766 JUMP JUMPDEST PUSH2 0x4FB SWAP2 SWAP1 PUSH2 0x77D JUMP JUMPDEST SWAP1 POP PUSH2 0x26A JUMP JUMPDEST PUSH1 0x40 DUP1 MLOAD PUSH1 0x1 PUSH1 0x1 PUSH1 0xA0 SHL SUB DUP5 AND PUSH1 0x24 DUP3 ADD MSTORE PUSH1 0x44 DUP1 DUP3 ADD DUP5 SWAP1 MSTORE DUP3 MLOAD DUP1 DUP4 SUB SWAP1 SWAP2 ADD DUP2 MSTORE PUSH1 0x64 SWAP1 SWAP2 ADD SWAP1 SWAP2 MSTORE PUSH1 0x20 DUP2 ADD DUP1 MLOAD PUSH1 0x1 PUSH1 0x1 PUSH1 0xE0 SHL SUB AND PUSH4 0xA9059CBB PUSH1 0xE0 SHL OR SWAP1 MSTORE PUSH2 0x554 SWAP1 DUP5 SWAP1 PUSH2 0x5F4 JUMP JUMPDEST POP POP POP JUMP JUMPDEST DUP1 SELFBALANCE LT ISZERO PUSH2 0x588 JUMPI PUSH1 0x40 MLOAD PUSH4 0xCF479181 PUSH1 0xE0 SHL DUP2 MSTORE SELFBALANCE PUSH1 0x4 DUP3 ADD MSTORE PUSH1 0x24 DUP2 ADD DUP3 SWAP1 MSTORE PUSH1 0x44 ADD JUMPDEST PUSH1 0x40 MLOAD DUP1 SWAP2 SUB SWAP1 REVERT JUMPDEST PUSH1 0x0 DUP1 DUP4 PUSH1 0x1 PUSH1 0x1 PUSH1 0xA0 SHL SUB AND DUP4 PUSH1 0x40 MLOAD PUSH1 0x0 PUSH1 0x40 MLOAD DUP1 DUP4 SUB DUP2 DUP6 DUP8 GAS CALL SWAP3 POP POP POP RETURNDATASIZE DUP1 PUSH1 0x0 DUP2 EQ PUSH2 0x5D6 JUMPI PUSH1 0x40 MLOAD SWAP2 POP PUSH1 0x1F NOT PUSH1 0x3F RETURNDATASIZE ADD AND DUP3 ADD PUSH1 0x40 MSTORE RETURNDATASIZE DUP3 MSTORE RETURNDATASIZE PUSH1 0x0 PUSH1 0x20 DUP5 ADD RETURNDATACOPY PUSH2 0x5DB JUMP JUMPDEST PUSH1 0x60 SWAP2 POP JUMPDEST POP SWAP2 POP SWAP2 POP DUP2 PUSH2 0x5EE JUMPI PUSH2 0x5EE DUP2 PUSH2 0x665 JUMP JUMPDEST POP POP POP POP JUMP JUMPDEST PUSH1 0x0 DUP1 PUSH1 0x20 PUSH1 0x0 DUP5 MLOAD PUSH1 0x20 DUP7 ADD PUSH1 0x0 DUP9 GAS CALL DUP1 PUSH2 0x617 JUMPI PUSH1 0x40 MLOAD RETURNDATASIZE PUSH1 0x0 DUP3 RETURNDATACOPY RETURNDATASIZE DUP2 REVERT JUMPDEST POP POP PUSH1 0x0 MLOAD RETURNDATASIZE SWAP2 POP DUP2 ISZERO PUSH2 0x62F JUMPI DUP1 PUSH1 0x1 EQ ISZERO PUSH2 0x63C JUMP JUMPDEST PUSH1 0x1 PUSH1 0x1 PUSH1 0xA0 SHL SUB DUP5 AND EXTCODESIZE ISZERO JUMPDEST ISZERO PUSH2 0x5EE JUMPI PUSH1 0x40 MLOAD PUSH4 0x5274AFE7 PUSH1 0xE0 SHL DUP2 MSTORE PUSH1 0x1 PUSH1 0x1 PUSH1 0xA0 SHL SUB DUP6 AND PUSH1 0x4 DUP3 ADD MSTORE PUSH1 0x24 ADD PUSH2 0x57F JUMP JUMPDEST DUP1 MLOAD ISZERO PUSH2 0x674 JUMPI DUP1 MLOAD PUSH1 0x20 DUP3 ADD REVERT JUMPDEST PUSH1 0x40 MLOAD PUSH4 0xD6BDA275 PUSH1 0xE0 SHL DUP2 MSTORE PUSH1 0x4 ADD PUSH1 0x40 MLOAD DUP1 SWAP2 SUB SWAP1 REVERT JUMPDEST DUP1 CALLDATALOAD PUSH8 0xFFFFFFFFFFFFFFFF DUP2 AND DUP2 EQ PUSH2 0x6A5 JUMPI PUSH1 0x0 DUP1 REVERT JUMPDEST SWAP2 SWAP1 POP JUMP JUMPDEST PUSH1 0x0 PUSH1 0x20 DUP3 DUP5 SUB SLT ISZERO PUSH2 0x6BC JUMPI PUSH1 0x0 DUP1 REVERT JUMPDEST PUSH2 0x328 DUP3 PUSH2 0x68D JUMP JUMPDEST DUP1 CALLDATALOAD PUSH1 0x1 PUSH1 0x1 PUSH1 0xA0 SHL SUB DUP2 AND DUP2 EQ PUSH2 0x6A5 JUMPI PUSH1 0x0 DUP1 REVERT JUMPDEST PUSH1 0x0 PUSH1 0x20 DUP3 DUP5 SUB SLT ISZERO PUSH2 0x6EE JUMPI PUSH1 0x0 DUP1 REVERT JUMPDEST PUSH2 0x328 DUP3 PUSH2 0x6C5 JUMP JUMPDEST PUSH1 0x0 DUP1 PUSH1 0x40 DUP4 DUP6 SUB SLT ISZERO PUSH2 0x70A JUMPI PUSH1 0x0 DUP1 REVERT JUMPDEST PUSH2 0x713 DUP4 PUSH2 0x6C5 JUMP JUMPDEST SWAP2 POP PUSH2 0x721 PUSH1 0x20 DUP5 ADD PUSH2 0x68D JUMP JUMPDEST SWAP1 POP SWAP3 POP SWAP3 SWAP1 POP JUMP JUMPDEST PUSH4 0x4E487B71 PUSH1 0xE0 SHL PUSH1 0x0 MSTORE PUSH1 0x11 PUSH1 0x4 MSTORE PUSH1 0x24 PUSH1 0x0 REVERT JUMPDEST DUP1 DUP3 ADD DUP1 DUP3 GT ISZERO PUSH2 0x26A JUMPI PUSH2 0x26A PUSH2 0x72A JUMP JUMPDEST DUP2 DUP2 SUB DUP2 DUP2 GT ISZERO PUSH2 0x26A JUMPI PUSH2 0x26A PUSH2 0x72A JUMP JUMPDEST DUP1 DUP3 MUL DUP2 ISZERO DUP3 DUP3 DIV DUP5 EQ OR PUSH2 0x26A JUMPI PUSH2 0x26A PUSH2 0x72A JUMP JUMPDEST PUSH1 0x0 DUP3 PUSH2 0x79A JUMPI PUSH4 0x4E487B71 PUSH1 0xE0 SHL PUSH1 0x0 MSTORE PUSH1 0x12 PUSH1 0x4 MSTORE PUSH1 0x24 PUSH1 0x0 REVERT JUMPDEST POP DIV SWAP1 JUMP INVALID LOG2 PUSH5 0x6970667358 0x22 SLT KECCAK256 PUSH32 0x98FF77FC24B0D6EA5E41AA9A76823731F1549AB1156F07A2ED5876E2747D5964 PUSH20 0x6F6C634300081400330000000000000000000000 "},"methodIdentifiers":{"beneficiary()":"38af3eed","duration()":"0fb5a6b4","releasable()":"fbccedae","releasable(address)":"a3f8eace","release()":"86d1a69f","release(address)":"19165587","released()":"96132521","released(address)":"9852595c","start()":"be9a6555","vestedAmount(address,uint64)":"810ec23b","vestedAmount(uint64)":"0a17b06b"}}}}}