{"contracts/VestingContract.sol":{"VestingContract":{"abi":[{"inputs":[{"internalType":"address","name":"_beneficiary","type":"address"},{"internalType":"uint256","name":"_cliffStart","type":"uint256"},{"internalType":"uint256","name":"_vestingDuration","type":"uint256"}],"stateMutability":"nonpayable","type":"constructor"},{"anonymous":false,"inputs":[{"indexed":true,"internalType":"address","name":"previousOwner","type":"address"},{"indexed":true,"internalType":"address","name":"newOwner","type":"address"}],"name":"OwnershipTransferred","type":"event"},{"anonymous":false,"inputs":[{"indexed":true,"internalType":"address","name":"beneficiary","type":"address"},{"indexed":false,"internalType":"uint256","name":"amount","type":"uint256"}],"name":"TokensReleased","type":"event"},{"stateMutability":"payable","type":"fallback"},{"inputs":[],"name":"beneficiary","outputs":[{"internalType":"address","name":"","type":"address"}],"stateMutability":"view","type":"function"},{"inputs":[],"name":"cliffStart","outputs":[{"internalType":"uint256","name":"","type":"uint256"}],"stateMutability":"view","type":"function"},{"inputs":[],"name":"owner","outputs":[{"internalType":"address","name":"","type":"address"}],"stateMutability":"view","type":"function"},{"inputs":[],"name":"release","outputs":[],"stateMutability":"nonpayable","type":"function"},{"inputs":[],"name":"releasedAmount","outputs":[{"internalType":"uint256","name":"","type":"uint256"}],"stateMutability":"view","type":"function"},{"inputs":[{"internalType":"address","name":"newOwner","type":"address"}],"name":"transferOwnership","outputs":[],"stateMutability":"nonpayable","type":"function"},{"inputs":[],"name":"vestedAmount","outputs":[{"internalType":"uint256","name":"","type":"uint256"}],"stateMutability":"view","type":"function"},{"inputs":[],"name":"vestingDuration","outputs":[{"internalType":"uint256","name":"","type":"uint256"}],"stateMutability":"view","type":"function"},{"stateMutability":"payable","type":"receive"}],"evm":{"bytecode":{"linkReferences":{},"object":"60e060405234801561001057600080fd5b5060405161091938038061091983398101604081905261002f9161019c565b6001600160a01b03831661009f5760405162461bcd60e51b815260206004820152602c60248201527f56657374696e67436f6e74726163743a2062656e65666963696172792069732060448201526b7a65726f206164647265737360a01b60648201526084015b60405180910390fd5b600082116101055760405162461bcd60e51b815260206004820152602d60248201527f56657374696e67436f6e74726163743a20636c696666207374617274206d757360448201526c7420626520706f73697469766560981b6064820152608401610096565b600081116101685760405162461bcd60e51b815260206004820152602a60248201527f56657374696e67436f6e74726163743a206475726174696f6e206d75737420626044820152696520706f73697469766560b01b6064820152608401610096565b6001600160a01b03909216608081905260a09190915260c091909152600080546001600160a01b03191690911790556101df565b6000806000606084860312156101b157600080fd5b83516001600160a01b03811681146101c857600080fd5b602085015160409095015190969495509392505050565b60805160a05160c0516106dc61023d600039600081816094015281816102280152610256015260008181610186015281816101cc01526101ff01526000818160db015281816102b3015281816103c4015261048501526106dc6000f3fe6080604052600436106100795760003560e01c806386d1a69f1161004b57806386d1a69f1461013f5780638da5cb5b14610154578063b297c55114610174578063f2fde38b146101a857005b80631514617e1461008257806338af3eed146100c957806344b1231f1461011557806345d30a171461012a57005b3661008057005b005b34801561008e57600080fd5b506100b67f000000000000000000000000000000000000000000000000000000000000000081565b6040519081526020015b60405180910390f35b3480156100d557600080fd5b506100fd7f000000000000000000000000000000000000000000000000000000000000000081565b6040516001600160a01b0390911681526020016100c0565b34801561012157600080fd5b506100b66101c8565b34801561013657600080fd5b506100b661028f565b34801561014b57600080fd5b506100806102a8565b34801561016057600080fd5b506000546100fd906001600160a01b031681565b34801561018057600080fd5b506100b67f000000000000000000000000000000000000000000000000000000000000000081565b3480156101b457600080fd5b506100806101c336600461060e565b6104ea565b60007f00000000000000000000000000000000000000000000000000000000000000004210156101f85750600090565b60006102247f000000000000000000000000000000000000000000000000000000000000000042610654565b90507f00000000000000000000000000000000000000000000000000000000000000008110610254574791505090565b7f000000000000000000000000000000000000000000000000000000000000000061027f824761066d565b6102899190610684565b91505090565b60006102996101c8565b6102a39047610654565b905090565b336001600160a01b037f00000000000000000000000000000000000000000000000000000000000000001614806102e957506000546001600160a01b031633145b6103565760405162461bcd60e51b815260206004820152603360248201527f56657374696e67436f6e74726163743a2063616c6c6572206973206e6f74206260448201527232b732b334b1b4b0b93c9037b91037bbb732b960691b60648201526084015b60405180910390fd5b60006103606101c8565b9050600081116103c05760405162461bcd60e51b815260206004820152602560248201527f56657374696e67436f6e74726163743a206e6f20746f6b656e7320746f2072656044820152646c6561736560d81b606482015260840161034d565b60007f00000000000000000000000000000000000000000000000000000000000000006001600160a01b03168260405160006040518083038185875af1925050503d806000811461042d576040519150601f19603f3d011682016040523d82523d6000602084013e610432565b606091505b50509050806104835760405162461bcd60e51b815260206004820181905260248201527f56657374696e67436f6e74726163743a207472616e73666572206661696c6564604482015260640161034d565b7f00000000000000000000000000000000000000000000000000000000000000006001600160a01b03167fc7798891864187665ac6dd119286e44ec13f014527aeeb2b8eb3fd413df93179836040516104de91815260200190565b60405180910390a25050565b6000546001600160a01b031633146105555760405162461bcd60e51b815260206004820152602860248201527f56657374696e67436f6e74726163743a2063616c6c6572206973206e6f74207460448201526734329037bbb732b960c11b606482015260840161034d565b6001600160a01b0381166105be5760405162461bcd60e51b815260206004820152602a60248201527f56657374696e67436f6e74726163743a206e6577206f776e6572206973207a65604482015269726f206164647265737360b01b606482015260840161034d565b600080546001600160a01b038381166001600160a01b0319831681178455604051919092169283917f8be0079c531659141344cd1fd0a4f28419497f9722a3daafe3b4186f6b6457e09190a35050565b60006020828403121561062057600080fd5b81356001600160a01b038116811461063757600080fd5b9392505050565b634e487b7160e01b600052601160045260246000fd5b818103818111156106675761066761063e565b92915050565b80820281158282048414176106675761066761063e565b6000826106a157634e487b7160e01b600052601260045260246000fd5b50049056fea26469706673582212204aff987ca78edc3a25d961d7a90d0ddd50fc9481530b29e76c6e977be9395f5164736f6c63430008140033","opcodes":"PUSH1 0xE0 PUSH1 0x40 MSTORE CALLVALUE DUP1 ISZERO PUSH2 0x10 JUMPI PUSH1 0x0 DUP1 REVERT JUMPDEST POP PUSH1 0x40 MLOAD PUSH2 0x919 CODESIZE SUB DUP1 PUSH2 0x919 DUP4 CODECOPY DUP2 ADD PUSH1 0x40 DUP2 SWAP1 MSTORE PUSH2 0x2F SWAP2 PUSH2 0x19C JUMP JUMPDEST PUSH1 0x1 PUSH1 0x1 PUSH1 0xA0 SHL SUB DUP4 AND PUSH2 0x9F JUMPI PUSH1 0x40 MLOAD PUSH3 0x461BCD PUSH1 0xE5 SHL DUP2 MSTORE PUSH1 0x20 PUSH1 0x4 DUP3 ADD MSTORE PUSH1 0x2C PUSH1 0x24 DUP3 ADD MSTORE PUSH32 0x56657374696E67436F6E74726163743A2062656E656669636961727920697320 PUSH1 0x44 DUP3 ADD MSTORE PUSH12 0x7A65726F2061646472657373 PUSH1 0xA0 SHL PUSH1 0x64 DUP3 ADD MSTORE PUSH1 0x84 ADD JUMPDEST PUSH1 0x40 MLOAD DUP1 SWAP2 SUB SWAP1 REVERT JUMPDEST PUSH1 0x0 DUP3 GT PUSH2 0x105 JUMPI PUSH1 0x40 MLOAD PUSH3 0x461BCD PUSH1 0xE5 SHL DUP2 MSTORE PUSH1 0x20 PUSH1 0x4 DUP3 ADD MSTORE PUSH1 0x2D PUSH1 0x24 DUP3 ADD MSTORE PUSH32 0x56657374696E67436F6E74726163743A20636C696666207374617274206D7573 PUSH1 0x44 DUP3 ADD MSTORE PUSH13 0x7420626520706F736974697665 PUSH1 0x98 SHL PUSH1 0x64 DUP3 ADD MSTORE PUSH1 0x84 ADD PUSH2 0x96 JUMP JUMPDEST PUSH1 0x0 DUP2 GT PUSH2 0x168 JUMPI PUSH1 0x40 MLOAD PUSH3 0x461BCD PUSH1 0xE5 SHL DUP2 MSTORE PUSH1 0x20 PUSH1 0x4 DUP3 ADD MSTORE PUSH1 0x2A PUSH1 0x24 DUP3 ADD MSTORE PUSH32 0x56657374696E67436F6E74726163743A206475726174696F6E206D7573742062 PUSH1 0x44 DUP3 ADD MSTORE PUSH10 0x6520706F736974697665 PUSH1 0xB0 SHL PUSH1 0x64 DUP3 ADD MSTORE PUSH1 0x84 ADD PUSH2 0x96 JUMP JUMPDEST PUSH1 0x1 PUSH1 0x1 PUSH1 0xA0 SHL SUB SWAP1 SWAP3 AND PUSH1 0x80 DUP2 SWAP1 MSTORE PUSH1 0xA0 SWAP2 SWAP1 SWAP2 MSTORE PUSH1 0xC0 SWAP2 SWAP1 SWAP2 MSTORE PUSH1 0x0 DUP1 SLOAD PUSH1 0x1 PUSH1 0x1 PUSH1 0xA0 SHL SUB NOT AND SWAP1 SWAP2 OR SWAP1 SSTORE PUSH2 0x1DF JUMP JUMPDEST PUSH1 0x0 DUP1 PUSH1 0x0 PUSH1 0x60 DUP5 DUP7 SUB SLT ISZERO PUSH2 0x1B1 JUMPI PUSH1 0x0 DUP1 REVERT JUMPDEST DUP4 MLOAD PUSH1 0x1 PUSH1 0x1 PUSH1 0xA0 SHL SUB DUP2 AND DUP2 EQ PUSH2 0x1C8 JUMPI PUSH1 0x0 DUP1 REVERT JUMPDEST PUSH1 0x20 DUP6 ADD MLOAD PUSH1 0x40 SWAP1 SWAP6 ADD MLOAD SWAP1 SWAP7 SWAP5 SWAP6 POP SWAP4 SWAP3 POP POP POP JUMP JUMPDEST PUSH1 0x80 MLOAD PUSH1 0xA0 MLOAD PUSH1 0xC0 MLOAD PUSH2 0x6DC PUSH2 0x23D PUSH1 0x0 CODECOPY PUSH1 0x0 DUP2 DUP2 PUSH1 0x94 ADD MSTORE DUP2 DUP2 PUSH2 0x228 ADD MSTORE PUSH2 0x256 ADD MSTORE PUSH1 0x0 DUP2 DUP2 PUSH2 0x186 ADD MSTORE DUP2 DUP2 PUSH2 0x1CC ADD MSTORE PUSH2 0x1FF ADD MSTORE PUSH1 0x0 DUP2 DUP2 PUSH1 0xDB ADD MSTORE DUP2 DUP2 PUSH2 0x2B3 ADD MSTORE DUP2 DUP2 PUSH2 0x3C4 ADD MSTORE PUSH2 0x485 ADD MSTORE PUSH2 0x6DC PUSH1 0x0 RETURN INVALID PUSH1 0x80 PUSH1 0x40 MSTORE PUSH1 0x4 CALLDATASIZE LT PUSH2 0x79 JUMPI PUSH1 0x0 CALLDATALOAD PUSH1 0xE0 SHR DUP1 PUSH4 0x86D1A69F GT PUSH2 0x4B JUMPI DUP1 PUSH4 0x86D1A69F EQ PUSH2 0x13F JUMPI DUP1 PUSH4 0x8DA5CB5B EQ PUSH2 0x154 JUMPI DUP1 PUSH4 0xB297C551 EQ PUSH2 0x174 JUMPI DUP1 PUSH4 0xF2FDE38B EQ PUSH2 0x1A8 JUMPI STOP JUMPDEST DUP1 PUSH4 0x1514617E EQ PUSH2 0x82 JUMPI DUP1 PUSH4 0x38AF3EED EQ PUSH2 0xC9 JUMPI DUP1 PUSH4 0x44B1231F EQ PUSH2 0x115 JUMPI DUP1 PUSH4 0x45D30A17 EQ PUSH2 0x12A JUMPI STOP JUMPDEST CALLDATASIZE PUSH2 0x80 JUMPI STOP JUMPDEST STOP JUMPDEST CALLVALUE DUP1 ISZERO PUSH2 0x8E JUMPI PUSH1 0x0 DUP1 REVERT JUMPDEST POP PUSH2 0xB6 PUSH32 0x0 DUP2 JUMP JUMPDEST PUSH1 0x40 MLOAD SWAP1 DUP2 MSTORE PUSH1 0x20 ADD JUMPDEST PUSH1 0x40 MLOAD DUP1 SWAP2 SUB SWAP1 RETURN JUMPDEST CALLVALUE DUP1 ISZERO PUSH2 0xD5 JUMPI PUSH1 0x0 DUP1 REVERT JUMPDEST POP PUSH2 0xFD PUSH32 0x0 DUP2 JUMP JUMPDEST PUSH1 0x40 MLOAD PUSH1 0x1 PUSH1 0x1 PUSH1 0xA0 SHL SUB SWAP1 SWAP2 AND DUP2 MSTORE PUSH1 0x20 ADD PUSH2 0xC0 JUMP JUMPDEST CALLVALUE DUP1 ISZERO PUSH2 0x121 JUMPI PUSH1 0x0 DUP1 REVERT JUMPDEST POP PUSH2 0xB6 PUSH2 0x1C8 JUMP JUMPDEST CALLVALUE DUP1 ISZERO PUSH2 0x136 JUMPI PUSH1 0x0 DUP1 REVERT JUMPDEST POP PUSH2 0xB6 PUSH2 0x28F JUMP JUMPDEST CALLVALUE DUP1 ISZERO PUSH2 0x14B JUMPI PUSH1 0x0 DUP1 REVERT JUMPDEST POP PUSH2 0x80 PUSH2 0x2A8 JUMP JUMPDEST CALLVALUE DUP1 ISZERO PUSH2 0x160 JUMPI PUSH1 0x0 DUP1 REVERT JUMPDEST POP PUSH1 0x0 SLOAD PUSH2 0xFD SWAP1 PUSH1 0x1 PUSH1 0x1 PUSH1 0xA0 SHL SUB AND DUP2 JUMP JUMPDEST CALLVALUE DUP1 ISZERO PUSH2 0x180 JUMPI PUSH1 0x0 DUP1 REVERT JUMPDEST POP PUSH2 0xB6 PUSH32 0x0 DUP2 JUMP JUMPDEST CALLVALUE DUP1 ISZERO PUSH2 0x1B4 JUMPI PUSH1 0x0 DUP1 REVERT JUMPDEST POP PUSH2 0x80 PUSH2 0x1C3 CALLDATASIZE PUSH1 0x4 PUSH2 0x60E JUMP JUMPDEST PUSH2 0x4EA JUMP JUMPDEST PUSH1 0x0 PUSH32 0x0 TIMESTAMP LT ISZERO PUSH2 0x1F8 JUMPI POP PUSH1 0x0 SWAP1 JUMP JUMPDEST PUSH1 0x0 PUSH2 0x224 PUSH32 0x0 TIMESTAMP PUSH2 0x654 JUMP JUMPDEST SWAP1 POP PUSH32 0x0 DUP2 LT PUSH2 0x254 JUMPI SELFBALANCE SWAP2 POP POP SWAP1 JUMP JUMPDEST PUSH32 0x0 PUSH2 0x27F DUP3 SELFBALANCE PUSH2 0x66D JUMP JUMPDEST PUSH2 0x289 SWAP2 SWAP1 PUSH2 0x684 JUMP JUMPDEST SWAP2 POP POP SWAP1 JUMP JUMPDEST PUSH1 0x0 PUSH2 0x299 PUSH2 0x1C8 JUMP JUMPDEST PUSH2 0x2A3 SWAP1 SELFBALANCE PUSH2 0x654 JUMP JUMPDEST SWAP1 POP SWAP1 JUMP JUMPDEST CALLER PUSH1 0x1 PUSH1 0x1 PUSH1 0xA0 SHL SUB PUSH32 0x0 AND EQ DUP1 PUSH2 0x2E9 JUMPI POP PUSH1 0x0 SLOAD PUSH1 0x1 PUSH1 0x1 PUSH1 0xA0 SHL SUB AND CALLER EQ JUMPDEST PUSH2 0x356 JUMPI PUSH1 0x40 MLOAD PUSH3 0x461BCD PUSH1 0xE5 SHL DUP2 MSTORE PUSH1 0x20 PUSH1 0x4 DUP3 ADD MSTORE PUSH1 0x33 PUSH1 0x24 DUP3 ADD MSTORE PUSH32 0x56657374696E67436F6E74726163743A2063616C6C6572206973206E6F742062 PUSH1 0x44 DUP3 ADD MSTORE PUSH19 0x32B732B334B1B4B0B93C9037B91037BBB732B9 PUSH1 0x69 SHL PUSH1 0x64 DUP3 ADD MSTORE PUSH1 0x84 ADD JUMPDEST PUSH1 0x40 MLOAD DUP1 SWAP2 SUB SWAP1 REVERT JUMPDEST PUSH1 0x0 PUSH2 0x360 PUSH2 0x1C8 JUMP JUMPDEST SWAP1 POP PUSH1 0x0 DUP2 GT PUSH2 0x3C0 JUMPI PUSH1 0x40 MLOAD PUSH3 0x461BCD PUSH1 0xE5 SHL DUP2 MSTORE PUSH1 0x20 PUSH1 0x4 DUP3 ADD MSTORE PUSH1 0x25 PUSH1 0x24 DUP3 ADD MSTORE PUSH32 0x56657374696E67436F6E74726163743A206E6F20746F6B656E7320746F207265 PUSH1 0x44 DUP3 ADD MSTORE PUSH5 0x6C65617365 PUSH1 0xD8 SHL PUSH1 0x64 DUP3 ADD MSTORE PUSH1 0x84 ADD PUSH2 0x34D JUMP JUMPDEST PUSH1 0x0 PUSH32 0x0 PUSH1 0x1 PUSH1 0x1 PUSH1 0xA0 SHL SUB AND DUP3 PUSH1 0x40 MLOAD PUSH1 0x0 PUSH1 0x40 MLOAD DUP1 DUP4 SUB DUP2 DUP6 DUP8 GAS CALL SWAP3 POP POP POP RETURNDATASIZE DUP1 PUSH1 0x0 DUP2 EQ PUSH2 0x42D JUMPI PUSH1 0x40 MLOAD SWAP2 POP PUSH1 0x1F NOT PUSH1 0x3F RETURNDATASIZE ADD AND DUP3 ADD PUSH1 0x40 MSTORE RETURNDATASIZE DUP3 MSTORE RETURNDATASIZE PUSH1 0x0 PUSH1 0x20 DUP5 ADD RETURNDATACOPY PUSH2 0x432 JUMP JUMPDEST PUSH1 0x60 SWAP2 POP JUMPDEST POP POP SWAP1 POP DUP1 PUSH2 0x483 JUMPI PUSH1 0x40 MLOAD PUSH3 0x461BCD PUSH1 0xE5 SHL DUP2 MSTORE PUSH1 0x20 PUSH1 0x4 DUP3 ADD DUP2 SWAP1 MSTORE PUSH1 0x24 DUP3 ADD MSTORE PUSH32 0x56657374696E67436F6E74726163743A207472616E73666572206661696C6564 PUSH1 0x44 DUP3 ADD MSTORE PUSH1 0x64 ADD PUSH2 0x34D JUMP JUMPDEST PUSH32 0x0 PUSH1 0x1 PUSH1 0x1 PUSH1 0xA0 SHL SUB AND PUSH32 0xC7798891864187665AC6DD119286E44EC13F014527AEEB2B8EB3FD413DF93179 DUP4 PUSH1 0x40 MLOAD PUSH2 0x4DE SWAP2 DUP2 MSTORE PUSH1 0x20 ADD SWAP1 JUMP JUMPDEST PUSH1 0x40 MLOAD DUP1 SWAP2 SUB SWAP1 LOG2 POP POP JUMP JUMPDEST PUSH1 0x0 SLOAD PUSH1 0x1 PUSH1 0x1 PUSH1 0xA0 SHL SUB AND CALLER EQ PUSH2 0x555 JUMPI PUSH1 0x40 MLOAD PUSH3 0x461BCD PUSH1 0xE5 SHL DUP2 MSTORE PUSH1 0x20 PUSH1 0x4 DUP3 ADD MSTORE PUSH1 0x28 PUSH1 0x24 DUP3 ADD MSTORE PUSH32 0x56657374696E67436F6E74726163743A2063616C6C6572206973206E6F742074 PUSH1 0x44 DUP3 ADD MSTORE PUSH8 0x34329037BBB732B9 PUSH1 0xC1 SHL PUSH1 0x64 DUP3 ADD MSTORE PUSH1 0x84 ADD PUSH2 0x34D JUMP JUMPDEST PUSH1 0x1 PUSH1 0x1 PUSH1 0xA0 SHL SUB DUP2 AND PUSH2 0x5BE JUMPI PUSH1 0x40 MLOAD PUSH3 0x461BCD PUSH1 0xE5 SHL DUP2 MSTORE PUSH1 0x20 PUSH1 0x4 DUP3 ADD MSTORE PUSH1 0x2A PUSH1 0x24 DUP3 ADD MSTORE PUSH32 0x56657374696E67436F6E74726163743A206E6577206F776E6572206973207A65 PUSH1 0x44 DUP3 ADD MSTORE PUSH10 0x726F2061646472657373 PUSH1 0xB0 SHL PUSH1 0x64 DUP3 ADD MSTORE PUSH1 0x84 ADD PUSH2 0x34D JUMP JUMPDEST PUSH1 0x0 DUP1 SLOAD PUSH1 0x1 PUSH1 0x1 PUSH1 0xA0 SHL SUB DUP4 DUP2 AND PUSH1 0x1 PUSH1 0x1 PUSH1 0xA0 SHL SUB NOT DUP4 AND DUP2 OR DUP5 SSTORE PUSH1 0x40 MLOAD SWAP2 SWAP1 SWAP3 AND SWAP3 DUP4 SWAP2 PUSH32 0x8BE0079C531659141344CD1FD0A4F28419497F9722A3DAAFE3B4186F6B6457E0 SWAP2 SWAP1 LOG3 POP POP JUMP JUMPDEST PUSH1 0x0 PUSH1 0x20 DUP3 DUP5 SUB SLT ISZERO PUSH2 0x620 JUMPI PUSH1 0x0 DUP1 REVERT JUMPDEST DUP2 CALLDATALOAD PUSH1 0x1 PUSH1 0x1 PUSH1 0xA0 SHL SUB DUP2 AND DUP2 EQ PUSH2 0x637 JUMPI PUSH1 0x0 DUP1 REVERT JUMPDEST SWAP4 SWAP3 POP POP POP JUMP JUMPDEST PUSH4 0x4E487B71 PUSH1 0xE0 SHL PUSH1 0x0 MSTORE PUSH1 0x11 PUSH1 0x4 MSTORE PUSH1 0x24 PUSH1 0x0 REVERT JUMPDEST DUP2 DUP2 SUB DUP2 DUP2 GT ISZERO PUSH2 0x667 JUMPI PUSH2 0x667 PUSH2 0x63E JUMP JUMPDEST SWAP3 SWAP2 POP POP JUMP JUMPDEST DUP1 DUP3 MUL DUP2 ISZERO DUP3 DUP3 DIV DUP5 EQ OR PUSH2 0x667 JUMPI PUSH2 0x667 PUSH2 0x63E JUMP JUMPDEST PUSH1 0x0 DUP3 PUSH2 0x6A1 JUMPI PUSH4 0x4E487B71 PUSH1 0xE0 SHL PUSH1 0x0 MSTORE PUSH1 0x12 PUSH1 0x4 MSTORE PUSH1 0x24 PUSH1 0x0 REVERT JUMPDEST POP DIV SWAP1 JUMP INVALID LOG2 PUSH5 0x6970667358 0x22 SLT KECCAK256 0x4A SELFDESTRUCT SWAP9 PUSH29 0xA78EDC3A25D961D7A90D0DDD50FC9481530B29E76C6E977BE9395F5164 PUSH20 0x6F6C634300081400330000000000000000000000 "},"methodIdentifiers":{"beneficiary()":"38af3eed","cliffStart()":"b297c551","owner()":"8da5cb5b","release()":"86d1a69f","releasedAmount()":"45d30a17","transferOwnership(address)":"f2fde38b","vestedAmount()":"44b1231f","vestingDuration()":"1514617e"}}}}}