{
  "_format": "hh-sol-artifact-1",
  "contractName": "VestingContract",
  "sourceName": "contracts/VestingContract.sol",
  "abi": [
    {
      "inputs": [
        {
          "internalType": "address",
          "name": "_beneficiary",
          "type": "address"
        },
        {
          "internalType": "uint256",
          "name": "_cliffStart",
          "type": "uint256"
        },
        {
          "internalType": "uint256",
          "name": "_vestingDuration",
          "type": "uint256"
        }
      ],
      "stateMutability": "nonpayable",
      "type": "constructor"
    },
    {
      "anonymous": false,
      "inputs": [
        {
          "indexed": true,
          "internalType": "address",
          "name": "previousOwner",
          "type": "address"
        },
        {
          "indexed": true,
          "internalType": "address",
          "name": "newOwner",
          "type": "address"
        }
      ],
      "name": "OwnershipTransferred",
      "type": "event"
    },
    {
      "anonymous": false,
      "inputs": [
        {
          "indexed": true,
          "internalType": "address",
          "name": "beneficiary",
          "type": "address"
        },
        {
          "indexed": false,
          "internalType": "uint256",
          "name": "amount",
          "type": "uint256"
        }
      ],
      "name": "TokensReleased",
      "type": "event"
    },
    {
      "stateMutability": "payable",
      "type": "fallback"
    },
    {
      "inputs": [],
      "name": "beneficiary",
      "outputs": [
        {
          "internalType": "address",
          "name": "",
          "type": "address"
        }
      ],
      "stateMutability": "view",
      "type": "function"
    },
    {
      "inputs": [],
      "name": "cliffStart",
      "outputs": [
        {
          "internalType": "uint256",
          "name": "",
          "type": "uint256"
        }
      ],
      "stateMutability": "view",
      "type": "function"
    },
    {
      "inputs": [],
      "name": "owner",
      "outputs": [
        {
          "internalType": "address",
          "name": "",
          "type": "address"
        }
      ],
      "stateMutability": "view",
      "type": "function"
    },
    {
      "inputs": [],
      "name": "release",
      "outputs": [],
      "stateMutability": "nonpayable",
      "type": "function"
    },
    {
      "inputs": [],
      "name": "releasedAmount",
      "outputs": [
        {
          "internalType": "uint256",
          "name": "",
          "type": "uint256"
        }
      ],
      "stateMutability": "view",
      "type": "function"
    },
    {
      "inputs": [
        {
          "internalType": "address",
          "name": "newOwner",
          "type": "address"
        }
      ],
      "name": "transferOwnership",
      "outputs": [],
      "stateMutability": "nonpayable",
      "type": "function"
    },
    {
      "inputs": [],
      "name": "vestedAmount",
      "outputs": [
        {
          "internalType": "uint256",
          "name": "",
          "type": "uint256"
        }
      ],
      "stateMutability": "view",
      "type": "function"
    },
    {
      "inputs": [],
      "name": "vestingDuration",
      "outputs": [
        {
          "internalType": "uint256",
          "name": "",
          "type": "uint256"
        }
      ],
      "stateMutability": "view",
      "type": "function"
    },
    {
      "stateMutability": "payable",
      "type": "receive"
    }
  ],
  "bytecode": "0x60e060405234801561001057600080fd5b5060405161091938038061091983398101604081905261002f9161019c565b6001600160a01b03831661009f5760405162461bcd60e51b815260206004820152602c60248201527f56657374696e67436f6e74726163743a2062656e65666963696172792069732060448201526b7a65726f206164647265737360a01b60648201526084015b60405180910390fd5b600082116101055760405162461bcd60e51b815260206004820152602d60248201527f56657374696e67436f6e74726163743a20636c696666207374617274206d757360448201526c7420626520706f73697469766560981b6064820152608401610096565b600081116101685760405162461bcd60e51b815260206004820152602a60248201527f56657374696e67436f6e74726163743a206475726174696f6e206d75737420626044820152696520706f73697469766560b01b6064820152608401610096565b6001600160a01b03909216608081905260a09190915260c091909152600080546001600160a01b03191690911790556101df565b6000806000606084860312156101b157600080fd5b83516001600160a01b03811681146101c857600080fd5b602085015160409095015190969495509392505050565b60805160a05160c0516106dc61023d600039600081816094015281816102280152610256015260008181610186015281816101cc01526101ff01526000818160db015281816102b3015281816103c4015261048501526106dc6000f3fe6080604052600436106100795760003560e01c806386d1a69f1161004b57806386d1a69f1461013f5780638da5cb5b14610154578063b297c55114610174578063f2fde38b146101a857005b80631514617e1461008257806338af3eed146100c957806344b1231f1461011557806345d30a171461012a57005b3661008057005b005b34801561008e57600080fd5b506100b67f000000000000000000000000000000000000000000000000000000000000000081565b6040519081526020015b60405180910390f35b3480156100d557600080fd5b506100fd7f000000000000000000000000000000000000000000000000000000000000000081565b6040516001600160a01b0390911681526020016100c0565b34801561012157600080fd5b506100b66101c8565b34801561013657600080fd5b506100b661028f565b34801561014b57600080fd5b506100806102a8565b34801561016057600080fd5b506000546100fd906001600160a01b031681565b34801561018057600080fd5b506100b67f000000000000000000000000000000000000000000000000000000000000000081565b3480156101b457600080fd5b506100806101c336600461060e565b6104ea565b60007f00000000000000000000000000000000000000000000000000000000000000004210156101f85750600090565b60006102247f000000000000000000000000000000000000000000000000000000000000000042610654565b90507f00000000000000000000000000000000000000000000000000000000000000008110610254574791505090565b7f000000000000000000000000000000000000000000000000000000000000000061027f824761066d565b6102899190610684565b91505090565b60006102996101c8565b6102a39047610654565b905090565b336001600160a01b037f00000000000000000000000000000000000000000000000000000000000000001614806102e957506000546001600160a01b031633145b6103565760405162461bcd60e51b815260206004820152603360248201527f56657374696e67436f6e74726163743a2063616c6c6572206973206e6f74206260448201527232b732b334b1b4b0b93c9037b91037bbb732b960691b60648201526084015b60405180910390fd5b60006103606101c8565b9050600081116103c05760405162461bcd60e51b815260206004820152602560248201527f56657374696e67436f6e74726163743a206e6f20746f6b656e7320746f2072656044820152646c6561736560d81b606482015260840161034d565b60007f00000000000000000000000000000000000000000000000000000000000000006001600160a01b03168260405160006040518083038185875af1925050503d806000811461042d576040519150601f19603f3d011682016040523d82523d6000602084013e610432565b606091505b50509050806104835760405162461bcd60e51b815260206004820181905260248201527f56657374696e67436f6e74726163743a207472616e73666572206661696c6564604482015260640161034d565b7f00000000000000000000000000000000000000000000000000000000000000006001600160a01b03167fc7798891864187665ac6dd119286e44ec13f014527aeeb2b8eb3fd413df93179836040516104de91815260200190565b60405180910390a25050565b6000546001600160a01b031633146105555760405162461bcd60e51b815260206004820152602860248201527f56657374696e67436f6e74726163743a2063616c6c6572206973206e6f74207460448201526734329037bbb732b960c11b606482015260840161034d565b6001600160a01b0381166105be5760405162461bcd60e51b815260206004820152602a60248201527f56657374696e67436f6e74726163743a206e6577206f776e6572206973207a65604482015269726f206164647265737360b01b606482015260840161034d565b600080546001600160a01b038381166001600160a01b0319831681178455604051919092169283917f8be0079c531659141344cd1fd0a4f28419497f9722a3daafe3b4186f6b6457e09190a35050565b60006020828403121561062057600080fd5b81356001600160a01b038116811461063757600080fd5b9392505050565b634e487b7160e01b600052601160045260246000fd5b818103818111156106675761066761063e565b92915050565b80820281158282048414176106675761066761063e565b6000826106a157634e487b7160e01b600052601260045260246000fd5b50049056fea26469706673582212204aff987ca78edc3a25d961d7a90d0ddd50fc9481530b29e76c6e977be9395f5164736f6c63430008140033",
  "linkReferences": {},
  "deployedLinkReferences": {}
}