{
  "_format": "hh-sol-artifact-1",
  "contractName": "VestingWallet",
  "sourceName": "contracts/VestingWallet.sol",
  "abi": [
    {
      "inputs": [
        {
          "internalType": "address",
          "name": "beneficiaryAddress",
          "type": "address"
        },
        {
          "internalType": "uint64",
          "name": "startTimestamp",
          "type": "uint64"
        },
        {
          "internalType": "uint64",
          "name": "durationSeconds",
          "type": "uint64"
        }
      ],
      "stateMutability": "payable",
      "type": "constructor"
    },
    {
      "inputs": [
        {
          "internalType": "address",
          "name": "target",
          "type": "address"
        }
      ],
      "name": "AddressEmptyCode",
      "type": "error"
    },
    {
      "inputs": [
        {
          "internalType": "address",
          "name": "account",
          "type": "address"
        }
      ],
      "name": "AddressInsufficientBalance",
      "type": "error"
    },
    {
      "inputs": [],
      "name": "FailedInnerCall",
      "type": "error"
    },
    {
      "inputs": [
        {
          "internalType": "address",
          "name": "token",
          "type": "address"
        }
      ],
      "name": "SafeERC20FailedOperation",
      "type": "error"
    },
    {
      "anonymous": false,
      "inputs": [
        {
          "indexed": true,
          "internalType": "address",
          "name": "token",
          "type": "address"
        },
        {
          "indexed": false,
          "internalType": "uint256",
          "name": "amount",
          "type": "uint256"
        }
      ],
      "name": "ERC20Released",
      "type": "event"
    },
    {
      "anonymous": false,
      "inputs": [
        {
          "indexed": false,
          "internalType": "uint256",
          "name": "amount",
          "type": "uint256"
        }
      ],
      "name": "EtherReleased",
      "type": "event"
    },
    {
      "inputs": [],
      "name": "beneficiary",
      "outputs": [
        {
          "internalType": "address",
          "name": "",
          "type": "address"
        }
      ],
      "stateMutability": "view",
      "type": "function"
    },
    {
      "inputs": [],
      "name": "duration",
      "outputs": [
        {
          "internalType": "uint256",
          "name": "",
          "type": "uint256"
        }
      ],
      "stateMutability": "view",
      "type": "function"
    },
    {
      "inputs": [
        {
          "internalType": "address",
          "name": "token",
          "type": "address"
        }
      ],
      "name": "releasable",
      "outputs": [
        {
          "internalType": "uint256",
          "name": "",
          "type": "uint256"
        }
      ],
      "stateMutability": "view",
      "type": "function"
    },
    {
      "inputs": [],
      "name": "releasable",
      "outputs": [
        {
          "internalType": "uint256",
          "name": "",
          "type": "uint256"
        }
      ],
      "stateMutability": "view",
      "type": "function"
    },
    {
      "inputs": [
        {
          "internalType": "address",
          "name": "token",
          "type": "address"
        }
      ],
      "name": "release",
      "outputs": [],
      "stateMutability": "nonpayable",
      "type": "function"
    },
    {
      "inputs": [],
      "name": "release",
      "outputs": [],
      "stateMutability": "nonpayable",
      "type": "function"
    },
    {
      "inputs": [],
      "name": "released",
      "outputs": [
        {
          "internalType": "uint256",
          "name": "",
          "type": "uint256"
        }
      ],
      "stateMutability": "view",
      "type": "function"
    },
    {
      "inputs": [
        {
          "internalType": "address",
          "name": "token",
          "type": "address"
        }
      ],
      "name": "released",
      "outputs": [
        {
          "internalType": "uint256",
          "name": "",
          "type": "uint256"
        }
      ],
      "stateMutability": "view",
      "type": "function"
    },
    {
      "inputs": [],
      "name": "start",
      "outputs": [
        {
          "internalType": "uint256",
          "name": "",
          "type": "uint256"
        }
      ],
      "stateMutability": "view",
      "type": "function"
    },
    {
      "inputs": [
        {
          "internalType": "uint64",
          "name": "timestamp",
          "type": "uint64"
        }
      ],
      "name": "vestedAmount",
      "outputs": [
        {
          "internalType": "uint256",
          "name": "",
          "type": "uint256"
        }
      ],
      "stateMutability": "view",
      "type": "function"
    },
    {
      "inputs": [
        {
          "internalType": "address",
          "name": "token",
          "type": "address"
        },
        {
          "internalType": "uint64",
          "name": "timestamp",
          "type": "uint64"
        }
      ],
      "name": "vestedAmount",
      "outputs": [
        {
          "internalType": "uint256",
          "name": "",
          "type": "uint256"
        }
      ],
      "stateMutability": "view",
      "type": "function"
    },
    {
      "stateMutability": "payable",
      "type": "receive"
    }
  ],
  "bytecode": "0x60e0604052604051610a63380380610a63833981016040819052610022916100d0565b6001600160a01b03831661008f5760405162461bcd60e51b815260206004820152602a60248201527f56657374696e6757616c6c65743a2062656e6566696369617279206973207a65604482015269726f206164647265737360b01b606482015260840160405180910390fd5b6001600160a01b039092166080526001600160401b0390811660a0521660c052610121565b80516001600160401b03811681146100cb57600080fd5b919050565b6000806000606084860312156100e557600080fd5b83516001600160a01b03811681146100fc57600080fd5b925061010a602085016100b4565b9150610118604085016100b4565b90509250925092565b60805160a05160c0516108f861016b6000396000818160ee0152818161044d01526104a2015260006103e9015260008181610158015281816102f1015261038901526108f86000f3fe6080604052600436106100a05760003560e01c806386d1a69f1161006457806386d1a69f146101a257806396132521146101b75780639852595c146101cc578063a3f8eace14610202578063be9a655514610222578063fbccedae1461023757600080fd5b80630a17b06b146100ac5780630fb5a6b4146100df578063191655871461011c57806338af3eed1461013e578063810ec23b1461018257600080fd5b366100a757005b600080fd5b3480156100b857600080fd5b506100cc6100c736600461077c565b61024c565b6040519081526020015b60405180910390f35b3480156100eb57600080fd5b507f000000000000000000000000000000000000000000000000000000000000000067ffffffffffffffff166100cc565b34801561012857600080fd5b5061013c6101373660046107ae565b610270565b005b34801561014a57600080fd5b506040516001600160a01b037f00000000000000000000000000000000000000000000000000000000000000001681526020016100d6565b34801561018e57600080fd5b506100cc61019d3660046107c9565b61031a565b3480156101ae57600080fd5b5061013c61032f565b3480156101c357600080fd5b506000546100cc565b3480156101d857600080fd5b506100cc6101e73660046107ae565b6001600160a01b031660009081526001602052604090205490565b34801561020e57600080fd5b506100cc61021d3660046107ae565b6103b1565b34801561022e57600080fd5b506100cc6103de565b34801561024357600080fd5b506100cc61040c565b600061026a61025a60005490565b6102649047610812565b83610428565b92915050565b600061027b826103b1565b6001600160a01b0383166000908152600160205260408120805492935083929091906102a8908490610812565b90915550506040518181526001600160a01b038316907fc0e523490dd523c33b1878c9eb14ff46991e3f5b2cd33710918618f2a39cba1b9060200160405180910390a2610316827f000000000000000000000000000000000000000000000000000000000000000083610502565b5050565b600061032861025a60005490565b9392505050565b600061033961040c565b90508060008082825461034c9190610812565b90915550506040518181527fda9d4e5f101b8b9b1c5b76d0c5a9f7923571acfc02376aa076b75a8c080c956b9060200160405180910390a16103ae7f000000000000000000000000000000000000000000000000000000000000000082610559565b50565b6001600160a01b0381166000908152600160205260408120546103d4834261031a565b61026a9190610825565b67ffffffffffffffff7f00000000000000000000000000000000000000000000000000000000000000001690565b600080546104194261024c565b6104239190610825565b905090565b60006104326103de565b8267ffffffffffffffff16101561044b5750600061026a565b7f000000000000000000000000000000000000000000000000000000000000000067ffffffffffffffff1661047e6103de565b6104889190610812565b8267ffffffffffffffff1611156104a057508161026a565b7f000000000000000000000000000000000000000000000000000000000000000067ffffffffffffffff166104d36103de565b6104e79067ffffffffffffffff8516610825565b6104f19085610838565b6104fb919061084f565b905061026a565b604080516001600160a01b038416602482015260448082018490528251808303909101815260649091019091526020810180516001600160e01b031663a9059cbb60e01b1790526105549084906105f5565b505050565b804710156105815760405163cd78605960e01b81523060048201526024015b60405180910390fd5b6000826001600160a01b03168260405160006040518083038185875af1925050503d80600081146105ce576040519150601f19603f3d011682016040523d82523d6000602084013e6105d3565b606091505b505090508061055457604051630a12f52160e11b815260040160405180910390fd5b600061060a6001600160a01b03841683610658565b9050805160001415801561062f57508080602001905181019061062d9190610871565b155b1561055457604051635274afe760e01b81526001600160a01b0384166004820152602401610578565b60606103288383600084600080856001600160a01b0316848660405161067e9190610893565b60006040518083038185875af1925050503d80600081146106bb576040519150601f19603f3d011682016040523d82523d6000602084013e6106c0565b606091505b50915091506106d08683836106da565b9695505050505050565b6060826106ef576106ea82610736565b610328565b815115801561070657506001600160a01b0384163b155b1561072f57604051639996b31560e01b81526001600160a01b0385166004820152602401610578565b5080610328565b8051156107465780518082602001fd5b604051630a12f52160e11b815260040160405180910390fd5b803567ffffffffffffffff8116811461077757600080fd5b919050565b60006020828403121561078e57600080fd5b6103288261075f565b80356001600160a01b038116811461077757600080fd5b6000602082840312156107c057600080fd5b61032882610797565b600080604083850312156107dc57600080fd5b6107e583610797565b91506107f36020840161075f565b90509250929050565b634e487b7160e01b600052601160045260246000fd5b8082018082111561026a5761026a6107fc565b8181038181111561026a5761026a6107fc565b808202811582820484141761026a5761026a6107fc565b60008261086c57634e487b7160e01b600052601260045260246000fd5b500490565b60006020828403121561088357600080fd5b8151801515811461032857600080fd5b6000825160005b818110156108b4576020818601810151858301520161089a565b50600092019182525091905056fea264697066735822122000be80dea0d8ca192a3735aee0d6eba9e29b957ff24acf91260f60dec2839a7164736f6c63430008140033",
  "linkReferences": {},
  "deployedLinkReferences": {}
}